:020000020000FC
:1000000008C007C006C005C004C003C002C001C0CC
:10001000C3C01FEF14B91AB910E017B92B9A2C9A64
:10002000289801E060D000E35ED008E05CD006E0F4
:100030005AD00CE358D00FE056D002E054D0789458
:1000400012E01093680010E210936C002B982C982B
:100050002998289A20E02BB97AD028982FEF2BB92D
:1000600076D0289A24E02BB972D0299A289A20E0D9
:100070002BB96DD028982FEF2BB969D0289A24E09E
:100080002BB965D02898299820E02BB960D0299AFF
:1000900020E02BB95CD050D0299820E02BB957D064
:1000A000299A2FEF2BB953D047D029982FEF2BB98E
:1000B0004ED0299A2FEF2BB94AD03ED029982FEF56
:1000C0002BB945D0299A20E02BB941D035D02998B9
:1000D00020E02BB93CD0299A20E02BB938D02CD085
:1000E000D1CF0000FECF2B9A2C9A289810E01AB995
:1000F0000ED01FEF1AB90BB92AD008952B9A2C9A5B
:1001000006D02A982998289A0BB921D008952B9ABD
:100110002C9A2A98299A28982A9A04D02A982998B9
:100120002898089571E06FEF5FEF5A95F1F76A959F
:10013000D9F77A95C1F7089571E064E15FEF5A95B8
:10014000F1F76A95D9F77A95C1F7089508952A9A33
:10015000000000000000000000000000000000009F
:100160002A980000000000000000000000000000CD
:100170000000089500E2C2DF4A95E1F708952A9849
:10018000299A28982A9A0000000000000000000028
:100190004F99F9CF2A980895909590FF189506B138
:1001A0000F710231A9F00331A9F000C08F3F41F077
:1001B000F0E2E0E0E00FE00FC895002D9FDF18951A
:1001C000F2E2E0E0E00FE00FC895002D97DF189510
:0601D000809518951895BA
:1020000041004200430044004500460047004800AC
:1020100049004A004B004C004D004E004F0050005C
:062020005100520008957A
:1022000053005400550056005700580059005A001A
:102210003000310032003300340035003600370022
:06222000380039000895AA
:00000001FF
