:020000020000FC
:1000000008C007C006C005C004C003C002C001C0CC
:1000100093C01FEF14B91AB910E017B92B9A2C9A94
:10002000289801E03BD000E339D008E037D006E063
:1000300035D00CE333D00FE031D002E02FD07894EC
:1000400012E01093680010E210936C002B982C982B
:100050002998289A20E02BB94AD028982FEF2BB95D
:1000600046D0289A24E02BB942D0299A289A20E039
:100070002BB93DD028982FEF2BB939D0289A24E0FE
:100080002BB935D0289A24E02BB931D02FEF2BB9DA
:100090002ED023D022D021D00000FECF2B9A2C9A34
:1000A000289810E01AB90ED01FEF1AB90BB91FD05B
:1000B00008952B9A2C9A06D02A982998289A0BB939
:1000C00016D008952B9A2C9A2A98299A28982A9A19
:1000D00004D02A9829982898089571E06FEF5FEF6F
:1000E0005A95F1F76A95D9F77A95C1F708952A9A42
:1000F0000000000000000000000000000000000000
:100100002A9800000000000000000000000000002D
:100110000000089500E2CDDF4A95E1F708952A989E
:10012000299A28982A9A0000000000000000000088
:100130004F99F9CF2A980895909590FF189506B198
:100140000F710231A9F00331A9F000C08F3F41F0D7
:10015000F2E0E0E0E00FE00FC895002DAADF18956F
:10016000F4E0E0E0E00FE00FC895002DA2DF189565
:060170008095189518951A
:1002000041004200430044004500460047004800CA
:1002100049004A004B004C004D004E004F0050007A
:0602200051005200089598
:1004000053005400550056005700580059005A0038
:100410003000310032003300340035003600370040
:06042000380039000895C8
:00000001FF
