:020000020000FC
:1000000008C007C006C005C004C003C002C001C0CC
:10001000FCC01FEF14B91AB910E017B98827AA2736
:100020002B9A2C9A289801E044D000E342D008E0B3
:1000300040D006E03ED00CE33CD00FE03AD002E0E6
:1000400038D0789412E01093680010E210936C009E
:100050002B982C982998289A20E02BB95ED02898C4
:100060002FEF2BB95AD0289A24E02BB956D0299AD1
:10007000289A20E02BB951D028982FEF2BB94DD0DA
:10008000289A24E02BB949D0A03031F0A13039F0C2
:10009000A23049F0A33051F02B9A2C9AF5CF2B982F
:1000A0002C9860D0F1CF2B982C98EECF2B982C98D1
:1000B000EBCF2B9A2C9A289810E01AB90ED01FEF8C
:1000C0001AB90BB92AD008952B9A2C9A06D02A98DF
:1000D0002998289A0BB921D008952B9A2C9A2A98FE
:1000E000299A28982A9A04D02A9829982898089515
:1000F00071E06FEF5FEF5A95F1F76A95D9F77A954E
:10010000C1F7089572E06BE15FEF5A95F1F76A95D8
:10011000D9F77A95C1F7089508952A9A000000004A
:100120000000000000000000000000002A9800000D
:100130000000000000000000000000000000089522
:1001400000E2C2DF4A95E1F708952A98299A289893
:100150002A9A000000000000000000004F99F9CF2B
:100160002A9808952898299820E02BB9D6DF299A53
:1001700020E02BB9D2DFC6DF299820E02BB9CDDFF4
:10018000299A2FEF2BB9C9DFBDDF29982FEF2BB9A3
:10019000C4DF299A2FEF2BB9C0DFB4DF29982FEFE6
:1001A0002BB9BBDF299A20E02BB9B7DFABDF299849
:1001B00020E02BB9B2DF299A20E02BB9AEDFA2DF15
:1001C000299820E82BB9A9DF299A2FEF2BB9A5DFB1
:1001D00099DF29982FEF2BB9A0DF299A20E02BB9BE
:1001E0009CDF90DF299820E02BB997DF299A20EA3D
:1001F0002BB993DF87DF29982FEF2BB98EDF299A50
:1002000020EA2BB98ADF7EDF0895909590FF18953C
:1002100006B10F710331C9F0A030E9F4023199F051
:1002200000C08F3F41F0F0E2E0E0E00FE00FC89542
:10023000002D4ADF1895F2E2E0E0E00FE00FC895EC
:10024000002D42DF189580951895A43011F0A395E4
:080250001895AA2718951895CE
:1020000041004200430044004500460047004800AC
:1020100049004A004B004C004D004E004F0050005C
:062020005100520008957A
:1022000053005400550056005700580059005A001A
:102210003000310032003300340035003600370022
:06222000380039000895AA
:0C24000002401EC03D4000FF10822D82F3
:10260000024002C028C03DAA3D962882028228824C
:082610003D6E3D5028400240E0
:0C2800003DA01DC002A002581F403D5822
:0E2A0000024002C128C03D963D6E28400240B3
:0E2C00003DC002C002403D40024002822882D8
:0A2E00003DC002C002400282288299
:103000003EA433BF0DC002A3025A0D4132413E58C7
:043010003E7C247B63
:0C32000002C0024102823E823EC03E40FD
:0C40000002C03EC01FC01F4002403E40F6
:084200003EC03E6F2140026F39
:0E44000002C002823EC002823E4002820240A2
:0646000002C002403E4032
:0A480000024011C020402EBF3E40D0
:084A0000024002C03E403EC02E
:104C000014C002A0025C144029403E5B3EA029C0B3
:024C100014C0CE
:0A4E0000024002C03EC03E82028262
:1050000014C002A0025C144029403E5B3EA029C0AF
:0850100014C000FF285A3E40C5
:0C520000024002C03EC03E8202823E40DE
:0C6000003EC002C002823E823E400240D0
:08620000214021C002C03EC094
:0864000002C002403E403EC014
:0666000002C020403EC074
:0A68000002C01440219B2D403EC051
:0A6A000002C03E4000FF02403EC00D
:0A6C000002C02082204020823EC026
:086E000002C03EC002403E400A
:1070000014C002A0025C144029403E5B3EA029C08F
:0270100014C0AA
:047200001FC01F404C
:0C80000002C03EC03E82028202403E40B0
:0E82000002C03EC03E8214823E823E400240DA
:088400003E6E026E36C03640EC
:108600003EC002C002893E893E5D31401140025C9D
:0C8800003EC002C002403E403E820282A8
:068A000002C03EC002406E
:108C0000028202570F4032403E583EAA33C00FC086
:068C100002AA02823E826E
:0A8E00003E403EC002C002823E82E6
:00000001FF
