:020000020000FC
:1000000008C007C006C005C004C003C002C001C0CC
:1000100067C01FEF14B91AB910E017B928982B9AC6
:100020002C9A789412E01093680010E210936C0000
:1000300001E00ED000E30CD008E00AD006E008D0C2
:100040000CE306D00FE004D002E002D00000FECFA7
:10005000289810E01AB90CD01FEF1AB90BB91BD0B1
:10006000089506D02A982998289A0BB914D0089593
:100070002A98299A28982A9A04D02A982998289860
:10008000089571E06FEF5FEF5A95F1F76A95D9F730
:100090007A95C1F708952A9A000000000000000038
:1000A00000000000000000002A980000000000008E
:1000B00000000000000000000000089500E2D1DF11
:1000C0004A95E1F708952A98299A28982A9A0000D3
:1000D00000000000000000004F99F9CF2A98089511
:1000E000909590FF189506B10F710231A9F0033178
:1000F000A9F000C08F3F41F0F2E0E0E0E00FE00F38
:10010000C895002DAEDF1895F4E0E0E0E00FE00FB9
:0E011000C895002DA6DF1895809518951895B6
:1002000041004200430044004500460047004800CA
:1002100049004A004B004C004D004E004F0050007A
:0602200051005200089598
:1004000053005400550056005700580059005A0038
:100410003000310032003300340035003600370040
:06042000380039000895C8
:00000001FF
