:020000020000FC
:1000000008C007C006C005C004C003C002C001C0CC
:10001000DAC01FEF14B91AB910E017B98827AA2758
:10002000332711242224332444245524662477249E
:1000300088242B9A2C9A289801E069D000E367D095
:1000400008E065D006E063D00CE361D00FE05FD03C
:1000500002E05DD0789412E01093680010E21093F3
:100060006C002B982C982998289A20E02BB982D0E4
:1000700028982FEF2BB97ED0289A24E02BB97AD07C
:10008000299A289A20E02BB975D028982FEF2BB900
:1000900071D0289A24E02BB96DD0A03039F0A1306E
:1000A00041F0A23069F0A33079F1F7CF2B9A2C9A66
:1000B000F4CF2B982C98F4E4E0E033276ED0EDCF0A
:1000C0002B982C9834E2232E30E0132E33E3432E6A
:1000D00030E8332E30E4632E30E0532E30E4832EAC
:1000E00030E8732E3327F22DE12D332756D0F42D2F
:1000F000E32D30E452D0F62DE52D30E84ED0F82D2A
:10010000E72D30EC4AD0C9CF2B982C98C6CF2B9A2C
:100110002C9A289810E01AB90ED01FEF1AB90BB913
:1001200029D008952B9A2C9A06D02A982998289A93
:100130000BB920D008952B9A2C9A2A98299A28989E
:100140002A9A04D02A9829982898089571E06FEF88
:100150005FEF5A95F1F76A95D9F77A95C1F7089547
:1001600072E06BE15FEF5A95F1F76A95D9F77A95EE
:10017000C1F708952A9A0000000000000000000066
:100180000000000000002A980000000000000000AD
:1001900000000000000000000895C895002D013106
:1001A00089F0030F289829980BB9E4DFE395C895E7
:1001B000002D013139F02898299A0BB9DBDFE3953E
:1001C000CFDFEBCF0895909590FF189506B10F7192
:1001D0000331C9F0A030E9F4023199F000C08F3F3B
:1001E00041F0F0E2E0E0E00FE00FC895002D9ADF6B
:1001F0001895F2E2E0E0E00FE00FC895002D92DFE5
:10020000189580951895A33011F0A3951895AA27F5
:040210001895189590
:1020000041004200430044004500460047004800AC
:1020100049004A004B004C004D004E004F0050005C
:062020005100520008957A
:1022000053005400550056005700580059005A001A
:102210003000310032003300340035003600370022
:06222000380039000895AA
:0E24000002401EC03D4000FF10822D821100E0
:10248000024002C028C03DAA3D96288202822882CE
:0A2490003D6E3D502840024011004F
:0E2500003DA01DC002A002581F403D58110012
:10258000024002C128C03D963D6E28400240110025
:102600003DC002C002403D400240028228821100CB
:0C2680003DC002C002400282288211000E
:102900003EA433BF0DC002A3025A0D4132413E58CE
:062910003E7C247B110057
:0E29800002C0024102823E823EC03E40110073
:0E2A000002C03EC01FC01F4002403E401100F9
:0A2A80003EC03E6F2140026F1100BE
:102B000002C002823EC002823E40028202401100A8
:082B800002C002403E401100BA
:0C2C0000024011C020402EBF3E401100D9
:0A2C8000024002C03E403EC01100B9
:102D000014C002A0025C144029403E5B3EA029C0D2
:042D100014C01100DA
:0C2D8000024002C03EC03E8202821100F0
:102E000014C002A0025C144029403E5B3EA029C0D1
:0A2E100014C000FF285A3E401100D4
:0E2E8000024002C03EC03E8202823E4011006F
:0E2F00003EC002C002823E823E4002401100EE
:0A2F8000214021C002C03EC0110034
:0A30000002C002403E403EC0110035
:0830800002C020403EC0110017
:0C31000002C01440219B2D403EC0110075
:0C31800002C03E4000FF02403EC01100B3
:0C32000002C02082204020823EC011004D
:0A32800002C03EC002403E401100B3
:1033000014C002A0025C144029403E5B3EA029C0CC
:0433100014C01100D4
:063380001FC01F401100F8
:0E40000002C03EC03E82028202403E401100DD
:1040800002C03EC03E8214823E823E400240110089
:0A4100003E6E026E36C0364011001C
:104180003EC002C002893E893E5D31401140025C62
:0241900011001C
:0E4200003EC002C002403E403E8202821100DB
:0842800002C03EC00240110023
:10430000028202570F4032403E583EAA33C00FC0CF
:0843100002AA02823E821100A4
:0C4380003E403EC002C002823E8211009E
:0C440000000000FFFFFFFF0000001100A3
:00000001FF
