:020000020000FC
:1000000008C007C006C005C004C003C002C001C0CC
:10001000E4C01FEF14B91AB910E017B98827AA274E
:10002000332711242224332444245524662477249E
:1000300088242D982B9A2C9A289801E069D000E307
:1000400067D008E065D006E063D00CE361D00FE034
:100050005FD002E05DD0789412E01093680010E267
:1000600010936C002B982C982998289A20E02BB993
:1000700082D028982FEF2BB97ED0289A24E02BB974
:100080007AD0299A289A20E02BB975D028982FEF9A
:100090002BB971D0289A24E02BB96DD030E4232EEF
:1000A00030E8132E30E4432E30E8332E30E4632E54
:1000B00030E8532E30E4832E30E8732E3327A030FF
:1000C00039F0A13041F0A23069F0A330F1F0F7CF60
:1000D0002B9A2C9AF4CF2B982C98F0E4E0E033275D
:1000E0005DD0EDCF2B982C98F22DE12D332756D0F3
:1000F000F42DE32D30E452D0F62DE52D30E84ED02E
:10010000F82DE72D30EC4AD0DACF2B982C98D7CFAA
:100110002B9A2C9A289810E01AB90ED01FEF1AB912
:100120000BB929D008952B9A2C9A06D02A98299891
:10013000289A0BB920D008952B9A2C9A2A98299A9C
:1001400028982A9A04D02A9829982898089571E026
:100150006FEF5FEF5A95F1F76A95D9F77A95C1F786
:10016000089572E06BE15FEF5A95F1F76A95D9F760
:100170007A95C1F708952A9A000000000000000057
:1001800000000000000000002A98000000000000AD
:10019000000000000000000000000895C895002D38
:1001A0000131D1F0003089F00F3F91F0030F289812
:1001B00029980BB9E0DFE395C895002D2898299A76
:1001C0000BB9D9DFE395CDDFE9CF2D98E395E6CFE5
:1001D0002D9AE395C6DFE2CF0895909590FF18958C
:1001E00006B10F710231A1F10331A1F1A03019F074
:1001F000A23099F018958F3F41F0F0E2E0E0E00F77
:10020000E00FC895002D8FDF1895F0E2E0EAE00FCF
:10021000E00FC895002D87DF18958F3F19F0F2E2A7
:10022000E0E003C0FBE2E0E000C0003041F002D0BB
:100230000A95FBCFB096B096B096B0960895862CEE
:10024000752C642C532C422C312C2F2E1E2E1895DD
:1002500080951895A33011F0A3951895AA271895A5
:1020000041004200430044004500460047004800AC
:1020100049004A004B004C004D004E004F0050005C
:062020005100520008957A
:1020A00053005400550056005700580059005A007C
:1020B0003000310032003300340035003600370084
:0620C0003800390008950C
:102200000240FF1EC03D40001082FF2D82001100E1
:102280000240FF02C028C03DAA3D96288202822853
:0C229000823D6E3D5028400240001100CD
:102300003DA0FF1DC002A002581F403D5800110013
:102380000240FF02C128C03D963D6E284002400039
:0223900011003A
:102400003DC0FF02C002403D4002400282288200DF
:022410001100B9
:0E2480003DC0FF02C00240028228820011000F
:102500003EA4FF33BF0DC002A3025A0D4132413E2B
:08251000583E7C247B00110001
:1025800002C0FF024102823E823EC03E4000110076
:1026000002C0FF3EC01FC01F4002403E40001100FC
:0C2680003EC0FF3E6F2140026F001100C1
:1027000002C0FF02823EC002823E400282024000BE
:022710001100B6
:0A27800002C0FF02403E40001100BD
:0E2800000240FF11C020402EBF3E40001100DC
:0C2880000240FF02C03E403EC0001100BC
:1029000014C0FF02A0025C144029403E5B3EA02997
:06291000C014C00011001C
:0E2980000240FF02C03EC03E820282001100F3
:102A000014C0FF02A0025C144029403E5B3EA02996
:0C2A1000C014C000FF285A3E4000110016
:102A80000240FF02C03EC03E8202823E4000110072
:102B00003EC0FF02C002823E823E400240001100F1
:0C2B80002140FF21C002C03EC000110037
:0C2C000002C0FF02403E403EC000110038
:0A2C800002C0FF20403EC00011001A
:0E2D000002C0FF1440219B2D403EC000110078
:0E2D800002C0FF3E4000FF02403EC0001100B6
:0E2E000002C0FF2082204020823EC000110050
:0C2E800002C0FF3EC002403E40001100B6
:102F000014C0FF02A0025C144029403E5B3EA02991
:062F1000C014C000110016
:082F80001FC0FF1F40001100FB
:1030000002C0FF3EC03E82028202403E40001100EC
:1030800002C0FF3EC03E8214823E823E40024000AB
:0230900011002D
:0C3100003E6EFF026E36C036400011002B
:103180003EC0FF02C002893E893E5D3140114002CF
:043190005C001100CE
:103200003EC0FF02C002403E403E820282001100EA
:0A32800002C0FF3EC0024000110032
:103300000282FF02570F4032403E583EAA33C00FA0
:0A331000C002AA02823E82001100F2
:0E3380003E40FF3EC002C002823E82001100AD
:0E4000000101FF01FEFEFEFE010101001100A4
:0240800011002D
:00000001FF
