:020000020000FC
:1000000008C007C006C005C004C003C002C001C0CC
:10001000E7C01FEF14B91AB910E017B92B9A2C9A40
:10002000289801E084D000E382D008E080D006E088
:100030007ED00CE37CD00FE07AD002E078D07894C8
:1000400012E01093680010E210936C002B982C982B
:100050002998289A20E02BB99ED028982FEF2BB909
:100060009AD0289A24E02BB996D0299A289A20E091
:100070002BB991D028982FEF2BB98DD0289A24E056
:100080002BB989D02898299820E02BB984D0299AB7
:1000900020E02BB980D074D0299820E02BB97BD0F8
:1000A000299A2FEF2BB977D06BD029982FEF2BB946
:1000B00072D0299A2FEF2BB96ED062D029982FEFEA
:1000C0002BB969D0299A20E02BB965D059D029984D
:1000D00020E02BB960D0299A20E02BB95CD050D019
:1000E000299820E82BB957D0299A2FEF2BB953D054
:1000F00047D029982FEF2BB94ED0299A20E02BB961
:100100004AD03ED0299820E02BB945D0299A20EA40
:100110002BB941D035D029982FEF2BB93CD0299A53
:1001200020EA2BB938D02CD0ADCF0000FECF2B9ACF
:100130002C9A289810E01AB90ED01FEF1AB90BB9F3
:100140002AD008952B9A2C9A06D02A982998289A72
:100150000BB921D008952B9A2C9A2A98299A28987D
:100160002A9A04D02A9829982898089571E06FEF68
:100170005FEF5A95F1F76A95D9F77A95C1F7089527
:1001800072E06BE15FEF5A95F1F76A95D9F77A95CE
:10019000C1F7089508952A9A0000000000000000A9
:1001A00000000000000000002A980000000000008D
:1001B00000000000000000000000089500E2C2DF1F
:1001C0004A95E1F708952A98299A28982A9A0000D2
:1001D00000000000000000004F99F9CF2A98089510
:1001E000909590FF189506B10F710231A9F0033177
:1001F000A9F000C08F3F41F0F0E2E0E0E00FE00F37
:10020000C895002D9FDF1895F2E2E0E0E00FE00FC7
:0E021000C895002D97DF1895809518951895C4
:1020000041004200430044004500460047004800AC
:1020100049004A004B004C004D004E004F0050005C
:062020005100520008957A
:1022000053005400550056005700580059005A001A
:102210003000310032003300340035003600370022
:06222000380039000895AA
:00000001FF
