:020000020000FC
:1000000008C007C006C005C004C003C002C001C0CC
:10001000B2C01FEF14B91AB910E017B92B9A2C9A75
:10002000289801E05AD000E358D008E056D006E006
:1000300054D00CE352D00FE050D002E04ED0789470
:1000400012E01093680010E210936C002B982C982B
:100050002998289A20E02BB969D028982FEF2BB93E
:1000600065D0289A24E02BB961D0299A289A20E0FB
:100070002BB95CD028982FEF2BB958D0289A24E0C0
:100080002BB954D02898299820E02BB94FD044D0D0
:10009000299A20E02BB94AD03FD0299825E52BB9E1
:1000A00045D03AD0299A25E52BB940D035D02998AA
:1000B0002FEF2BB93BD030D0299A2FEF2BB936D068
:1000C0002BD029982AEA2BB931D026D0299A2AEAAE
:1000D0002BB92CD021D00000FECF2B9A2C9A289837
:1000E00010E01AB90ED01FEF1AB90BB91FD008953E
:1000F0002B9A2C9A06D02A982998289A0BB916D0B0
:1001000008952B9A2C9A2A98299A28982A9A04D0EA
:100110002A9829982898089574E66FEF5FEF5A950A
:10012000F1F76A95D9F77A95C1F708952A9A0000F0
:1001300000000000000000000000000000002A98FD
:1001400000000000000000000000000000000000AF
:10015000089500E2CDDF4A95E1F708952A98299A9B
:1001600028982A9A000000000000000000004F9923
:10017000F9CF2A980895909590FF189506B10F71C0
:100180000231A9F00331A9F000C08F3F41F0F2E045
:10019000E0E0E00FE00FC895002DAADF1895F4E02D
:1001A000E0E0E00FE00FC895002DA2DF18958095E4
:0401B00018951895F1
:1002000041004200430044004500460047004800CA
:1002100049004A004B004C004D004E004F0050007A
:0602200051005200089598
:1004000053005400550056005700580059005A0038
:100410003000310032003300340035003600370040
:06042000380039000895C8
:00000001FF
