:020000020000FC
:1000000008C007C006C005C004C003C002C001C0CC
:10001000E4C01FEF14B91AB910E017B98827AA274E
:10002000332711242224332444245524662477249E
:1000300088242D982B9A2C9A289801E069D000E307
:1000400067D008E065D006E063D00CE361D00FE034
:100050005FD002E05DD0789412E01093680010E267
:1000600010936C002B982C982998289A20E02BB993
:1000700082D028982FEF2BB97ED0289A24E02BB974
:100080007AD0299A289A20E02BB975D028982FEF9A
:100090002BB971D0289A24E02BB96DD0A03039F05B
:1000A000A13041F0A23069F0A33079F1F7CF2B9A5B
:1000B0002C9AF4CF2B982C98F4E4E0E033276ED000
:1000C000EDCF2B982C9834E2232E30E0132E33E31F
:1000D000432E30E8332E30E4632E30E0532E30E4EC
:1000E000832E30E8732E3327F22DE12D332756D09F
:1000F000F42DE32D30E452D0F62DE52D30E84ED02E
:10010000F82DE72D30EC4AD0C9CF2B982C98C6CFCC
:100110002B9A2C9A289810E01AB90ED01FEF1AB912
:100120000BB929D008952B9A2C9A06D02A98299891
:10013000289A0BB920D008952B9A2C9A2A98299A9C
:1001400028982A9A04D02A9829982898089571E026
:100150006FEF5FEF5A95F1F76A95D9F77A95C1F786
:10016000089572E061E15FEF5A95F1F76A95D9F76A
:100170007A95C1F708952A9A000000000000000057
:1001800000000000000000002A98000000000000AD
:10019000000000000000000000000895C895002D38
:1001A0000131D1F0003089F00F3F91F0030F289812
:1001B00029980BB9E0DFE395C895002D2898299A76
:1001C0000BB9D9DFE395CDDFE9CF2D98E395E6CFE5
:1001D0002D9AE395C6DFE2CF0895909590FF18958C
:1001E00006B10F710331C9F0A030E9F4023199F082
:1001F00000C08F3F41F0F0E2E0E0E00FE00FC89573
:10020000002D91DF1895F2E2E0E0E00FE00FC895D5
:10021000002D89DF189580951895A33011F0A395CE
:080220001895AA2718951895FE
:1020000041004200430044004500460047004800AC
:1020100049004A004B004C004D004E004F0050005C
:062020005100520008957A
:1022000053005400550056005700580059005A001A
:102210003000310032003300340035003600370022
:06222000380039000895AA
:102400000240FF1EC03D40001082FF2D82001100DF
:102480000240FF02C028C03DAA3D96288202822851
:0A249000823D6E3D502840024011CD
:0E250000FF3DA01DC002A002581F403D581113
:10258000FF024002C128C03D963D6E284002401126
:10260000FF3DC002C002403D4002400282288211CC
:0C268000FF3DC002C0024002822882110F
:10290000FF3EA433BF0DC002A3025A0D4132413E27
:06291000583E7C247B11FF
:0E298000FF02C0024102823E823EC03E401174
:0E2A0000FF02C03EC01FC01F4002403E4011FA
:0A2A8000FF3EC03E6F2140026F11BF
:102B0000FF02C002823EC002823E400282024011A9
:082B8000FF02C002403E4011BB
:0C2C0000FF024011C020402EBF3E4011DA
:0A2C8000FF024002C03E403EC011BA
:102D0000FF14C002A0025C144029403E5B3EA02993
:042D1000C014C0111A
:0C2D8000FF024002C03EC03E82028211F1
:102E000014C002A0025C144029403E5B3EA029C0D1
:0A2E100014C000FF285A3E401100D4
:0E2E8000024002C03EC03E8202823E4011006F
:0E2F00003EC002C002823E823E4002401100EE
:0A2F8000214021C002C03EC0110034
:0A30000002C002403E403EC0110035
:0830800002C020403EC0110017
:0C31000002C01440219B2D403EC0110075
:0C31800002C03E4000FF02403EC01100B3
:0C32000002C02082204020823EC011004D
:0A32800002C03EC002403E401100B3
:1033000014C002A0025C144029403E5B3EA029C0CC
:0433100014C01100D4
:083380001FC0FF1F40001100F7
:1040000002C0FF3EC03E82028202403E40001100DC
:1040800002C0FF3EC03E8214823E823E400240009B
:0240900011001D
:0A4100003E6E026E36C0364011001C
:104180003EC002C002893E893E5D31401140025C62
:0241900011001C
:0E4200003EC002C002403E403E8202821100DB
:0842800002C03EC00240110023
:10430000028202570F4032403E583EAA33C00FC0CF
:0843100002AA02823E821100A4
:0C4380003E403EC002C002823E8211009E
:0E440000FF010101FEFEFEFE010101001100A0
:00000001FF
