:020000020000FC
:1000000006C005C004C003C002C001C010C11FEF7C
:1000100014B924981AB910E017B98827AA273327EA
:10002000112422243324442455246624772488244C
:100030002D98B5E2B0937C00B2EEB0937A00B0E0B8
:10004000B0937B002B9A2C9A289801E081D000E392
:100050007FD008E07DD006E07BD00CE379D00FE0C4
:1000600077D002E075D0789411E01093680010E129
:1000700010936B002B982C982998289A20E02BB984
:10008000A2D028982FEF2BB99ED0289A24E02BB924
:100090009AD0299A289A20E02BB995D028982FEF4A
:1000A0002BB991D0289A24E02BB98DD030E4232E9F
:1000B00030E8132E30E4432E30E8332E30E4632E44
:1000C00030E8532E30E4832E30E8732E3327A030EF
:1000D00039F0A13041F0A23069F0A330F1F0F7CF50
:1000E0002B9A2C9AF4CF2B982C98F0E4E0E033274D
:1000F0007DD0EDCF2B982C98F22DE12D332776D0A3
:10010000F42DE32D30E472D0F62DE52D30E86ED0DD
:10011000F82DE72D30EC6AD0DACF2B982C98F0E44C
:10012000E2E8332763D0F0E4E2E833275FD0F0E47D
:10013000E2E833275BD0F1E4E0E0332757D0F1E485
:10014000E0E0332753D0F1E4E0E033274FD0BFCFD6
:100150002B9A2C9A289810E01AB90ED01FEF1AB9D2
:100160000BB931D008952B9A2C9A06D02A98299849
:10017000289A0BB928D008952B9A2C9A2A98299A54
:1001800028982A9A04D02A9829982898089571E0E6
:100190006FEF5FEF5A95F1F76A95D9F77A95C1F746
:1001A0000895609179005FEF5A95F1F76A95D9F754
:1001B000089572E062E05FEF5A95F1F76A95D9F71A
:1001C0007A95C1F708952A9A000000000000000007
:1001D00000000000000000002A980000000000005D
:1001E000000000000000000000000895C895002DE8
:1001F0000131E1F0003091F00F3F99F0030F2898A2
:1002000029980BB9E0DFE395C895002D2898299A25
:100210000BB9D9DFE395C5DFCCDFE8CF2D98E395A7
:10022000E5CF2D9AE395BDDFC4DFE0CF089590952B
:1002300090FF189506B10F710231A1F10331A1F1C0
:10024000A03019F0A23099F018958F3F41F0F0E2FC
:10025000E0E0E00FE00FC895002D85DF1895F0E293
:10026000E0EAE00FE00FC895002D7DDF18958F3F85
:1002700019F0F2E2E0E003C0FBE2E0E000C0003091
:1002800041F002D00A95FBCFB096B096B096B096EA
:100290000895242C132C462C352C682C572C8F2E8B
:1002A0007E2E189580951895A33011F0A39518957A
:0402B000AA271895CC
:1020000041004200430044004500460047004800AC
:1020100049004A004B004C004D004E004F0050005C
:062020005100520008957A
:1020A00053005400550056005700580059005A007C
:1020B0003000310032003300340035003600370084
:0620C0003800390008950C
:102200000240FF1EC03D40001082FF2D82001100E1
:102280000240FF02C028C03DAA3D96288202822853
:0C229000823D6E3D5028400240001100CD
:102300003DA0FF1DC002A002581F403D5800110013
:102380000240FF02C128C03D963D6E284002400039
:0223900011003A
:102400003DC0FF02C002403D4002400282288200DF
:022410001100B9
:0E2480003DC0FF02C00240028228820011000F
:102500003EA4FF33BF0DC002A3025A0D4132413E2B
:08251000583E7C247B00110001
:1025800002C0FF024102823E823EC03E4000110076
:1026000002C0FF3EC01FC01F4002403E40001100FC
:0C2680003EC0FF3E6F2140026F001100C1
:1027000002C0FF02823EC002823E400282024000BE
:022710001100B6
:0A27800002C0FF02403E40001100BD
:0E2800000240FF10C020402EBF3E40001100DD
:0C2880000240FF02C03E403EC0001100BC
:1029000014C0FF02A0025C144029403E5B3EA02997
:06291000C014C00011001C
:0E2980000240FF02C03EC03E820282001100F3
:102A000014C0FF02A0025C144029403E5B3EA02996
:0C2A1000C014C000285AFF3E4000110016
:102A80000240FF02C03EC03E8202823E4000110072
:102B00003EC0FF02C002823E823E400240001100F1
:0C2B80002140FF21C002C03EC000110037
:0C2C000002C0FF02403E403EC000110038
:0A2C800002C0FF20403EC00011001A
:0E2D000002C0FF1440219B2D403EC000110078
:0E2D800002C0FF3E40000240FF3EC0001100B6
:0E2E000002C0FF2082204020823EC000110050
:0C2E800002C0FF3EC002403E40001100B6
:102F000014C0FF02A0025C144029403E5B3EA02991
:062F1000C014C000110016
:082F80001FC0FF1F40001100FB
:1030000002C0FF3EC03E82028202403E40001100EC
:1030800002C0FF3EC03E8214823E823E40024000AB
:0230900011002D
:0C3100003E6EFF026E36C036400011002B
:103180003EC0FF02C002893E893E5D3140104002D0
:043190005C001100CE
:103200003EC0FF02C002403E403E820282001100EA
:0A32800002C0FF3EC0024000110032
:103300000282FF02570F4032403E583EAA33C00FA0
:0A331000C002AA02823E82001100F2
:0E3380003E40FF3EC002C002823E82001100AD
:0E4000000101FF01FEFEFEFE010101001100A4
:1040800011005053FF7063739E7BAC7BAC87AB8F8A
:10409000A0A09DA09D9F8F9F8F84898489837D8E02
:1040A0007D8E7D847B83647A5D7A528052775277ED
:0640B0005D5053001100F9
:104100005053FF7063739E7BAC7BAC87AB8FA0A2D8
:10411000A58B92A38B80809A9900B0ACFF9D97B538
:10412000A6A196BD9BA292B8919F8FA09D009F8F44
:10413000FF9F8F84898489837D8E7D8E7D847B83A0
:10414000647A5D7A5280527752775D505300110045
:104180000E1BFF514752B863D48AD79CB9C2B6C13F
:10419000898785866AA66281526F32930E710E51AD
:0641A0002D0E1B001100B2
:104200000E1BFF514752B863D48AD79CB9C2B6C1BE
:10421000898785866AA66281526F32930E710E512C
:104220002D0E1B00B1A5FF9D9D9D9D9D9D9D9DB14A
:10423000A500B1A5FFE8BDB9A4E8B2BDA1EAA1C03F
:0C4240009AE791C196E386B79200110046
:00000001FF
